:020000040000FA
:10000000780A0020A9010000C50100008D01000050
:1000100000000000000000000000000000000000E0
:10002000000000000000000000000000C901000006
:100030000000000000000000CB010000751C000063
:10004000CF010000CF010000CF010000CF01000070
:10005000CF010000CF010000CF010000CF01000060
:10006000CF010000CF010000CF010000CF01000050
:10007000CF010000851C0000CF010000CF0100006F
:10008000CF010000CF010000CF010000CF01000030
:10009000CF010000CF010000CF010000CF01000020
:1000A00000000000CF010000CF010000CF010000E0
:1000B000CF010000CF010000CF010000CF01000000
:1000C00000F002F800F053F80CA030C808382418EB
:1000D0002D18A246671EAB4654465D46AC4201D180
:1000E00000F045F87E460F3E0FCCB646012633425F
:1000F00000D0FB1AA246AB4633431847EC2C000055
:100100000C2D0000103A02D378C878C1FAD85207F3
:1001100001D330C830C101D504680C6070470000BD
:100120000023002400250026103A01D378C1FBD813
:10013000520700D330C100D50B60704710B5662957
:1001400002D102F0B3FD10BD782902D100F0A6F86B
:1001500010BD002010BD1FB501F0B0F80400002054
:10016000002102F0DFFCE0601FBD10B510BD01F002
:10017000FBFB1146FFF7EFFF02F06AFA01F013FCF8
:1001800003B4FFF7F2FF03BC01F05AFC04207146F0
:10019000084202D0EFF3098001E0EFF308807146D6
:1001A000004A1047091B00000C480D4901600D4929
:1001B00001600D4901600D4A0D4911600021016087
:1001C0000C480047FEE7FEE7FEE7FEE7FEE7FEE736
:1001D00009480A490A4A0B4B7047000000010050C9
:1001E0005900000016000000880000006000005068
:1001F000A55A0000C100000078000020780A002005
:1002000078050020780500200FB4054910B503AA31
:10021000029801F03FF810BC08BC04B01847000079
:10022000040000200FB41CB5074B06AA7B446946A6
:100230000090059801F015F80020694601F024F8B7
:100240001CBC08BC04B018475910000070B5044627
:1002500085690068C10601D5302600E02026C00768
:1002600007D070BD62683046A1689047206A401C84
:1002700020626D1EF6D570BD70B5044685690078A4
:10028000C00707D170BD6268A16820209047206A2E
:10029000401C20626D1EF6D570BD000070B504468E
:1002A0000D4621461068C046C0462188090502D582
:1002B0000F4A7A4402E00E4A7A440E322346002165
:1002C000243305E006070009360F965D5E54491C8D
:1002D0000028F7D120780023000705D5702D03D022
:1002E000002901D002231132204600F052FD70BDDA
:1002F000362A0000F3B50446002081B02062204673
:10030000E168884700287AD0252802D06268A16871
:1003100071E0E16820460025884706460020E0613C
:100320000746A0612A2E0AD0304601F03FFD002882
:1003300027D0B8000019303E0090866119E002987D
:10034000BA00121902C8916102902046E1688847FC
:10035000012F064617D1E06900281FDA20208543C7
:100360001CE000980A2180694843009980193038C0
:1003700088612046E1688847064601F017FD00289D
:10038000EFD1012F0AD02E2E08D12046E1688847F0
:100390000646202005437F1C022FC3DBA0690028EE
:1003A00003DA4042A06101200543E80701D0102094
:1003B0008543002E23D030464138192803D8012028
:1003C000C00205432036204625603146029A154674
:1003D000FFF7B4FE00280BD0012806D0ED1DE80879
:1003E000C000083002908AE709E02D1D029586E7DB
:1003F00062683046A1689047206A401C7EE7206A08
:10040000FEBD002203098B422CD3030A8B4211D379
:1004100000239C464EE003460B433CD40022430895
:100420008B4231D303098B421CD3030A8B4201D385
:1004300094463FE0C3098B4201D3CB01C01A52411D
:1004400083098B4201D38B01C01A524143098B426D
:1004500001D34B01C01A524103098B4201D30B0156
:10046000C01A5241C3088B4201D3CB00C01A52417B
:1004700083088B4201D38B00C01A524143088B4240
:1004800001D34B00C01A5241411A00D201465241D9
:10049000104670475DE0CA0F00D04942031000D3F8
:1004A0004042534000229C4603098B422DD3030A4D
:1004B0008B4212D3FC22890112BA030A8B420CD35D
:1004C000890192118B4208D3890192118B4204D386
:1004D00089013AD0921100E08909C3098B4201D306
:1004E000CB01C01A524183098B4201D38B01C01A40
:1004F000524143098B4201D34B01C01A52410309B7
:100500008B4201D30B01C01A5241C3088B4201D365
:10051000CB00C01A524183088B4201D38B00C01A12
:100520005241D9D243088B4201D34B00C01A5241E9
:10053000411A00D20146634652415B10104601D376
:100540004042002B00D54942704763465B1000D300
:10055000404201B50020C046C04602BD704770470A
:10056000704700000246C80FC00781434B0030B5FA
:100570004B405B009B0D20D01923DB06C9180123DB
:100580001B05994220DB0324A40704251346AB4036
:100590000BD3002B04D1EB0613409B00E34204D4A1
:1005A00001246407002312195941FF231B059942B6
:1005B0000BD2C9000143500F09E0CB0204D501431F
:1005C0000803024305D0054830BDFF21C905084393
:1005D00030BD084607210905884330BD0000C07FB3
:1005E000F0B50C46871A9C410D46861A9D4103D2F0
:1005F000C01BA141D21963410D0D1F0DC94EEC1B4B
:10060000AE435CD07F057F0D0026002F51D02D0515
:10061000AC46A943DD020123ED0A1B051D4320233F
:100620001B1B24D41746E740381871412F46E7407A
:10063000CC199D402818314661410C0D27D16144E9
:100640009A4013D50023401C594152000ED1400856
:10065000400001224B005205D34207D3052040073A
:10066000C14201D5B04900E0B0493046F0BD6B0051
:10067000002A00D001229A181F23203C1B1B01D501
:10068000002302E0E540281871410C0DD7D0012469
:1006900024050919C407CD0740084908E40F284379
:1006A0006144002CD5D00024401C61419A40D0D137
:1006B000CDE76A05520DD9D1C90FC907D5E79C4DC1
:1006C0004E00002801D0012400E0002434195F000E
:1006D000002A01D0012600E00026BE19954FAC4249
:1006E0000CD8AE420AD8B44206D001256D05EC42C2
:1006F000BCD010461946F0BD9942FCD000203946C6
:10070000F0BDF0B51FB40C460F46811A9F41254637
:10071000861A9D4106D20125ED076F40401ABC4163
:1007200052187B41210D1E0D8D1BAC467D4D8D4316
:100730007ED075056D0D7CD00D05AE46AC431B0318
:100740001B0B794D52429D41202366469B1B14D3BF
:100750001746F740381800260090744160462F462F
:100760000741E41900989D402818664116D4714647
:1007700071189A4025D5012320E093182A466A4132
:100780005200002B00D0521C1E23203E9B1B002B2E
:1007900061DD3541EE1728186641E8D5001876412D
:1007A0005B1C9A4000D3401C4B05F3181524E34012
:1007B00010D3002B52D071467118D30FC01802D33A
:1007C000491C05B0F0BD0123DB079A42F9D140086E
:1007D0004000F6E701225205B21801D1002853D09B
:1007E0000123CC0ADB029943891E002A08D1020C9E
:1007F00003D0020C0004103902E002460020203928
:100800000023550B05D112020823550B01D15201CB
:100810000D23550C01D112011B1DD50C01D19200E5
:100820009B1C150D01D152005B1C2025EE1A01E026
:100830002CE022E00546F54015439840CA1AE1072E
:1008400069181305C918002ABBDA032040070818E5
:10085000C10FC9070FE071466118B2E7F107400800
:100860000843711071444A000CD001235B059A4281
:10087000A7D2C90FC9070020A3E74905490D26D112
:10088000002001E00028F4D100219AE7284D6600FD
:10089000002801D0012100E0002171185F00002A2A
:1008A00001D0012600E00026BE19224FA94210D82F
:1008B000AE420ED8B14208D001256D05E94206D0FE
:1008C0001946A802414010467BE79C4201D02146D0
:1008D00077E70020394674E710B50C465C4005D533
:1008E0000124E4076340FFF70CFF10BDFFF778FE1B
:1008F00010BD30B40C465C4004D50124E4076340CD
:1009000030BC6DE630BCFCE670B50124E407614004
:100910000D465D4002D4FFF763FE70BD6340FFF7F4
:10092000F0FE70BDFF0700000000F0FF0000F07F48
:100930000000E0FF0000F87FF0B58B4C0F09254662
:1009400089B0BD437BD01D092646AE43FAD00E4682
:100950005E402740F60F3E43254071D024012142DE
:10096000FBD0FF24AD19A4042D1B039501252D05F3
:10097000DB02DB0AC9022B43C90A29431E01090114
:10098000040F130F050121431701880B82039143C4
:100990002D098C46A90B1E438A039543B30B9A037A
:1009A00096433F09BA0B9403A74302962E467E4313
:1009B0000497B6464E19D7190C460196544305972D
:1009C0007E43371B7646BF1B3601B646BE0B361933
:1009D00000967646BC043719009C01D3641C009431
:1009E0006400002F01D001263443029E049F75430A
:1009F00066467E430496760034196E0034190094DE
:100A0000029C019E1C196643751BAE460694654602
:100A10004519059C05956C43594375460891691A1B
:100A20000191049E01465143A41B0491611A009C4C
:100A30000791E10605D061090122114302E072E04D
:100A40006EE06109089D00272C0A2D066918049D97
:100A50007C412A0A2D066918019D6241AC0DAD0248
:100A60006D185441079A910D920255196141029AED
:100A7000644658435443069B059A5A43121A131B63
:100A80009A0E9B015B187A41010B0005C318514176
:100A9000220A200644195A419A4200D2491C0120D8
:100AA0004002814203D315230226F64302E01423B9
:100AB0000326F6432020C51AA9401746AF40DA4066
:100AC0000A4320460399D840091473181905511890
:100AD000039A3843D2075140AC4009D001229440D8
:100AE00006D30022401C5141002C01D14008400097
:100AF0001E4A934212D3012203989206904207DBCA
:100B00000520400709181A480143C012414004E07B
:100B1000032040070818C10FC907002009B0F0BD25
:100B20000020F107FAE705180C464C4111486D42C8
:100B3000A04115D394181A465A410E486442904178
:100B40000ED301204A004005824209D35A00824256
:100B500006D35940C90F084AC90700201143DDE7F1
:100B600000200649DAE700000000FF07FE0700004A
:100B7000FFFFFF7F0000E0FF0000F07F0000F87F34
:100B80000121C9050123411842001B06D3185B0E41
:100B90000AD0C1100722D206891840075242D1421A
:100BA00001D5520089187047090208D50146002A6C
:100BB00003D0C10FC907002070471046704742029A
:100BC00002D0002002497047072109050143F4E7DC
:100BD0000000F87FF0B5FF252D04C609C209FF27E4
:100BE00004462E400137CB093E4348402A402B4063
:100BF0000746002A6BD0002B69D0AA4267D0AB42CF
:100C000065D0002800DA32460125ED0529432C4342
:100C100009022002090AD21A4B0C7F24E31A434C22
:100C2000000A7C44E35C7D242404121914145B0044
:100C3000A218884201D3521C00E0400049420C46F1
:100C40005C4324115C43DB016415E318040A5C4334
:100C5000C502200D0C4644436419250A5D43230355
:100C6000EC0C0D46654300030019EB184C42A342FF
:100C700001D35B18401CD4052018002B07D05B0063
:100C8000C91804D3401C002901D1400840003F216D
:100C900089048A4209D3002A08DC1106090F04D00E
:100CA000032149074018C00FC007F0BD01224100D1
:100CB000120689187F2252069142F6D20521490771
:100CC000C84201D59010F0BDFF20C005F0BD002F37
:100CD00000DA32461648AA4207D2AB4205D21902C0
:100CE000090E17D0F80FC007F0BDFF2563002D06D1
:100CF000AB42F9D84900A942F6D8AB4201D1A9428A
:100D0000F2D0A94201D1002101E061004908D005DB
:100D10000843F0BD1102090EFBD0FF200243D005AD
:100D2000F0BD0A460146104654E70000EE200000E0
:100D30000000C07F1F22030C02D10F2200041CD030
:100D4000030E01D10002083A030F01D10001121F66
:100D5000830F01D18000921E002801DB4000521E4B
:100D6000D2055118021251181922904004D3491C7F
:100D7000002801D14908490008467047C10FC9073A
:100D800000D04042012292071143D3E70121890795
:100D9000D0E7FFB504460D4681B0243000902168AD
:100DA000880604D51022E0699143216000E001200B
:100DB000A84201DD471B00E000270498A1697A19C9
:100DC0001018081AA0612078C00602D42046FFF748
:100DD0003DFA002608E003986268A168805D9047AC
:100DE000206A401C761C206204988642F3DB20783F
:100DF000C0060AD52046FFF729FA06E06268A16816
:100E000030209047206A401C206238467F1E002810
:100E1000F4DC07E000986268A168405D9047206AB2
:100E2000401C206228466D1E0028F3DC2046FFF798
:100E300023FA2078000602D5022005B0F0BD01207B
:100E4000FBE700007047FFB50C461E468FB003CA93
:100E5000089009914F007D0D00D16D1E00210846BC
:100E60000020C0460321099A89050840002A03DAB8
:100E70008200801840080840800D01280A9002DD99
:100E80000020C0430A90089807430DD0EF48F0496E
:100E9000281848430714189800281DD07542291EA9
:100EA0001DDD0A9842421BE01898012802D000205C
:100EB000302104E00020F24305E02154401CB04200
:100EC000FBDB30460022189B002121540F998B60D8
:100ED0000A60486013B0F0BDBD1B6D1CDFE70A9AC5
:100EE000002900DA69420BA800F06EFA0BAB07CBC1
:100EF00003AB07C30899099800F0CAFA6B4607C309
:100F00000146D4480918002D00910ADDD149039803
:100F10000A9A4942401803A90390684600F0DDFC94
:100F200007E003990A9A081803A90390684600F09D
:100F3000AAFC6B4607C30004000C03D00020C0438A
:100F4000410800E01046189A002A03D000220092BF
:100F500015461EE0751E05D400F0B4F93032625516
:100F60006D1EF9D501220843079602D000227F1C8E
:100F700004E02078302801D100227F1E002A069745
:100F800089D01EE0112D07DA00F09CF9303262554D
:100F90006D1C02460A43F5D1084303D0009800288F
:100FA00019D00EE00021681E05E0235C625C6354EA
:100FB0002254401E491C8142F7DBA81B401E0795A6
:100FC0000690079A18990020A0540F98079B069A3C
:100FD00081600CC07EE71126002018905BE7D21DCF
:100FE000F0B50D460446D10893B0C90003C90C9072
:100FF0000D9100F0C5FE02460D98C00F01D02D20C6
:1010000007E02068810701D52B2002E04007C00FD0
:101010004001032A0F9001D0072A05DB0346294629
:10102000204600F08DF90EE12078800601D5E769B1
:1010300000E006272846652D04D0662814D0672DC9
:1010400069D12DE00020112F009001DB112300E079
:101050007B1C0CAA03A910A8FFF7F5FE1199002626
:1010600010987D1C0E9142E001203B460CAAC0075F
:101070000B900120009003A910A8FFF7E4FE119D3A
:1010800012981099002600280E9501D1781C0D1891
:10109000781B02D446427D1C761EE81B00903AE085
:1010A000012F00DA01270020112F009001DD11230C
:1010B00000E03B460CAA03A910A8FFF7C4FE119953
:1010C0003D46109800260E91217809070BD40E9901
:1010D000A94200DA0D4603A9012D04DD4A19203A80
:1010E000D27F302A06D0B84201DA011D04DA01218C
:1010F00000910FE06D1EEFE7002802DC86192D1A23
:1011000003E0411CA94200DD0D46801B401C0090FD
:101110000120C0070B902078000705D40098A84252
:1011200002DB0020C043009069460020C8720B9883
:10113000012102AF0337C907884225D00220109051
:101140002B2011900B9800280BDA40420B902D2099
:10115000119006E00B9800F0EFFB30317F1E0B90F2
:1011600039701099481E00291090F3DC0B98002864
:10117000F0D111987F1E38702088000501D54520D8
:1011800000E065207F1E387001A8C01BC01D0B90B9
:101190000F98002800D0012041190098C0170918A5
:1011A0000B980818A169081A401EA0612078C00693
:1011B00002D42046FFF74AF80F98002805D062684D
:1011C000A1689047206A401C20622078C00625D57F
:1011D0002046FFF73BF821E0002E07DB0E98B042D7
:1011E00004DD03A86268805DA16802E06268A1680E
:1011F00030209047206A761C401C20620098401ED8
:10120000002800900AD100F059F8C06862680168AF
:10121000405CA1689047206A401C206228466D1EF1
:101220000028D9DC07E062683878A1687F1C904705
:10123000206A401C20620B99481E00290B90F2DCAA
:101240002046FFF719F8032044E6000001FCFFFFE9
:10125000104D0000E1DFFFFF01694A1C02610878C0
:10126000704700B58FB002910021059105490193A7
:1012700079440391114604906846FFF73BF80FB09C
:1012800000BD0000E5FFFFFF0A681070521C0A60F5
:1012900070470000084B70B50D467B44FFF7E1FF37
:1012A0000446284600F097FD002802D00020C043E5
:1012B00070BD204670BD0000410B00000048704723
:1012C000340000200B4670B50246890780080843A9
:1012D00019469D08141AA94125090807054308095C
:1012E0002C194841250A01060D43010A2C194141D8
:1012F000200C0D0428430D0C00194D41002140190C
:101300004D41C00869070843E908840F8D00254353
:10131000840024184D4124196D41121BAB4107E094
:101320000925ED432C11521963410024401C6141F1
:101330001C460A250026551BB441F1D270BD0000A1
:10134000F8B51F46044601230068DB020326014668
:101350001840072A05DB002801D017A506E017A5CD
:1013600004E0002801D016A500E016A51020814356
:101370002160A069C01E002FA06101D0401EA061A5
:101380002046FEF763FF002F09D038466268A16847
:101390009047206A401C2062C01C206206E0206A40
:1013A000FAE762682878A1686D1C9047761EF8D22B
:1013B0002046FEF761FFF8BD4E414E006E616E00A3
:1013C000494E4600696E6600F7B516468AB02F484A
:1013D00078446C4603467C33C06F5A689B680DC4E2
:1013E0002A487844763003AC0DC80DC43720C001BC
:1013F000081837211B30FFF70EF805460C46803DD4
:101400001B3C02D56442012000E000200027099027
:101410000FE0E0070BD00C201C497843794432469A
:101420004C394118684600F02EFA6B4607C3641029
:101430007F1C002CEDD1154F7F442C3F15E0E807B1
:1014400011D02001C0190EC80691089307920068B8
:10145000F04201D198190890324606A903A800F07D
:1014600012FA03AB07C36D10641C002DE7D132469E
:1014700069460998002803A802D000F02EFA01E07E
:1014800000F001FA0A9B07C30DB0F0BD80190000FF
:10149000034640000A4610B5400D0BD00121C90794
:1014A0000F24A40200191C0364082143540D214396
:1014B000D20207E000210120F2E7D40F49002143C6
:1014C0005200401E0029F8DADB0FDB07184310BD7D
:1014D000FFB50D46144685B04868516800F02AFCF7
:1014E00000910190A868A16800F024FC029103908B
:1014F000A868616800F01EFC029A121882420292EB
:1015000001D2012000E00020019A0B18D218002817
:10151000019202D08A4202D903E08A4201D201201C
:1015200000E000200099081800906868A16800F0A9
:1015300001FC029A12188242029201D2012000E0BC
:101540000020019A0B18D2180028019202D08A427A
:1015500002D903E08A4201D2012000E00020009974
:101560000818009028682168400049004008490890
:101570004018EE49471814E001994000C90F08438C
:101580000090019802994000C90F08430190029809
:1015900003994000C90F08430290039840007F1E42
:1015A000039000980028E7DA0898002801D0E04E60
:1015B00000E00026B74228DAF71BF806C00E15D067
:1015C000029B2021091A039A8B401A430392029A24
:1015D000019BC2408B401A430292019A009BC24079
:1015E0008B4000991A430192C14000917A110BD0AF
:1015F0006B460320811A01D5002101E0890059586A
:101600008700401ED951F5D5374603980299002826
:1016100000D00120014308980291002808460CD010
:10162000002800D001200199019A490508430121B1
:10163000D20AC902D202019200E001210E9B0122CE
:10164000D207012B02D0002B03D013E0002807D1D2
:1016500016E0904204D890420CD1019B0B4209D075
:10166000019B5918019105D10099491C009101D1A4
:101670007F1C0092002803D0102108460020C0469D
:1016800028682168019B009A4840C10F0598C90746
:1016900039430EC009B0F0BDFFB587B0099A08986C
:1016A00008995368926840688968964600220393B7
:1016B00017469446089A12685300099A5B08126804
:1016C000520052089A1A9B4BD4180A9A002A01D049
:1016D000352200E0402206920022012315460492A2
:1016E000DB07059324E0002D05D175460346039ED4
:1016F0004D1BB34109D375466646039B491B049DA8
:101700009841059B7519AC465F4163463B4308D041
:10171000059B049EDD0776082E435B08049605931F
:1017200001E0521E641EC50FED0749184041521CCE
:10173000069B9A42D7DB002D04D17546039A6B1A9B
:10174000824101D203200CE0039A0B466B404240D9
:10175000134303D0014303D0012002E0022000E044
:101760000020614601910021009702910A99002909
:1017700005D06146400201436D4B019102E08007B4
:10178000002302909C423ADA1A1BD006C00E15D0F4
:10179000029D2021019C091AC5408C402543029CD2
:1017A0008C4000D001242543019C02953D46C44055
:1017B0008D4039462C43C1400194009154111DD0F5
:1017C0006D460221002202290CD10320001B07E0F4
:1017D000002804DB8600AE59002E00D00122401CF8
:1017E0000328F5DB081B02D588002A5004E080009E
:1017F000285810438A00A850491EE3D51C460A9871
:10180000002802980CD0002800D001200199019AEC
:10181000490508430121D20AC902D202019200E01F
:101820000121109B0122D207012B02D0002B03D0F3
:1018300013E0002807D116E0904204D890420CD162
:10184000019B0B4209D0019B5918019105D10099C8
:10185000491C009101D1641C0092002803D0102182
:1018600008460020C04608980999019A006809684E
:1018700048400099C30F0798DB0723430360826049
:1018800041600BB0F0BD1FB5002300920A4601462F
:1018900001A8FFF71DFE01AB07CB04B010BD1FB5BB
:1018A000012300920A46014601A8FFF711FE01AB91
:1018B0000F2407CBA402C30F4000DB074008001B26
:1018C000002900DB0020490000054908CC0A20431C
:1018D00049051843D20A1143DFE71FB500230092E0
:1018E0000A46014601A8FFF7D7FE01AB07CBD4E7B4
:1018F0001FB5012300920A46014601A8FFF7CCFE5E
:1019000001AB0F2407CBA402C30F4000DB07400844
:10191000001B002900DB0020490000054908CC0A13
:10192000204349051843D20A1143B6E702C0FFFF1E
:10193000013C0000FF3F000001468008081A020930
:101940001018020A1018020C1018C0088200121891
:101950005200891A01E0401C0A390A29FBD270475B
:1019600000487047140000207546FFF7F9FFAE46A7
:10197000050069465346C008C000854618B020B52A
:10198000FEF726FC60BC00274908B6460026C0C505
:10199000C0C5C0C5C0C5C0C5C0C5C0C5C0C5403D27
:1019A00049008D46704710B50446C046C0462046E3
:1019B000FEF7E6FB10BD0000024670B50A43920731
:1019C0002AD11E4DEE0104C808C9541B944334406B
:1019D00017D0D0B2D9B2401A2106014310D190B22B
:1019E00099B2401A210401430AD110021902000AD7
:1019F000090A401A2102014302D1100E190E401AA1
:101A000070BD9A42DFD010BA19BA884201D90120BC
:101A100070BD0020C04370BD02780B78401C491C8B
:101A2000002A09D09A4207D102780B78401C491C41
:101A3000002A01D09A42EFD0D01A70BD01010101F5
:101A400001491820ABBEFEE72600020070470000E7
:101A5000C10F8900064A89184968C306DB0E0122B6
:101A60009A401143C20F9200014BD2185160704747
:101A700000020050F0B50B4600210024002586032B
:101A8000360E002E0FD00603B60FB600114FF51913
:101A900029688603370E8605F60EB7400E46BE430C
:101AA000164331462960C600360F002E10D046007E
:101AB000B60FB600074F0C3FF4192168C600370F68
:101AC000C601F60EB7400E46BE431E4331462160A6
:101AD000F0BD00001C02005070B5034600200FE06E
:101AE000012484400C40002C09D01C6846000325CA
:101AF000B540AC4346001546B5402C431C60401C25
:101B00001028EDD370BD0000044604A0FEF77CFB56
:101B1000204600F0B3FF00BFFEE70000496E2048FA
:101B2000617264204661756C742048616E646C65F6
:101B3000720A000010B5002819DA1A4A03071B0FB1
:101B4000083B9B089B00D2588307DC0EFF23A34071
:101B50009A438B071B0E8407E40EA3401A43114BD4
:101B60000407240F083CA408A4001A5118E00E4AE8
:101B700003231B02D21883089B00D2588307DC0E74
:101B8000FF23A3409A438B071B0E8407E40EA34058
:101B90001A43054B032424021B198408A4001A517C
:101BA00010BD00001CED00E000E100E006E059205F
:101BB000054908601620086088200860024800680F
:101BC0000128F4D1704700000001005000B5034621
:101BD000184600F001F800BD00BF054989690122DF
:101BE000920211400029F8D10149086070470000B5
:101BF00000000540FEB5002002901C48456AC00167
:101C00002840002801D00020FEBD012040042840CB
:101C1000002801D0164F00E0154F01200003284096
:101C2000002801D0022000E00120019003200002E2
:101C30002840060A002E01D1022408E0012E01D11D
:101C4000042404E0022E01D1082400E01024A90697
:101C5000890E2031794308462146FEF7D2FB0090D9
:101C60000199FEF7CEFB02900298CDE700020050EA
:101C7000001BB70002480068401C0149086070471B
:101C80000000002002490968C8B201490860704795
:101C900000001540F0B587B004460D4622480146C5
:101CA0000EC9C06802AE0EC6059020484069800784
:101CB000800F06900698800002A90F581B48C06943
:101CC0000F2109020840000A401C0190002F07D193
:101CD000FFF790FF00900199FEF793FB074604E0A1
:101CE00038460199FEF78DFB07460020A0630320CC
:101CF000A060002D15D06908C8192946FEF781FBA0
:101D0000461E0B4886420BD9E900C8192946FEF742
:101D100078FB0009401E0121C9070843606200E00A
:101D2000666207B0F0BD0000BC2C0000000200504D
:101D3000FFFF0000F8B582B28BB2040C0D0C104608
:101D40005843002126465E43370C360480197941FA
:101D500016466E43370C36048019794126466E4389
:101D60008919F8BD30B47446641E2578641CAB42F2
:101D700004D3635D5B00E31830BC18471D46F8E7E9
:101D80004900CA020243100000D004204A0D01D0CD
:101D900001221043044A490D914201D10221084316
:101DA000012800D105207047FF07000030380A28BD
:101DB00001D20120704700207047002100E0491C3B
:101DC000820082188A42FAD87047002100E0491C3C
:101DD0008142FCDB704701460020C043704730B5AC
:101DE00004460D462046FFF7F1FE204630BD70B593
:101DF0000A2600BF3146AE2000F024FE0121AF20AC
:101E000000F010FE054620202C46044322463146B1
:101E1000AE2000F023FE3146AE2000F013FE01217B
:101E2000AF2000F0FFFD0546A542E3D170BD70B5BF
:101E3000082600BF3146AE2000F004FE0121AF208D
:101E400000F0F0FD054640202C4604432246314672
:101E5000AE2000F003FE3146AE2000F0F3FD01217C
:101E6000AF2000F0DFFD0546A542E3D170BD70B59F
:101E7000082600BF3146AE2000F0E4FD0121AF206E
:101E800000F0D0FD054610202C4604432246314682
:101E9000AE2000F0E3FD3146AE2000F0D3FD01217D
:101EA000AF2000F0BFFD0546A542E3D170BD10B5DF
:101EB00000F0BEF8FFF7BBFFFFF7D9FF00F098F87E
:101EC000FFF795FF00F0D4F800F072F800F058F832
:101ED00000F016F800F034F800F001F810BD10B56D
:101EE00000220421AE2000F0B9FD00220521AE2021
:101EF00000F0B4FD00220621AE2000F0AFFD10BDC1
:101F000070B5112600BF3146AE2000F09BFD0121C7
:101F1000AF2000F087FD054601202C4604432246F1
:101F20003146AE2000F09AFD3146AE2000F08AFD29
:101F30000121AF2000F076FD0546A542E3D170BD3A
:101F400070B5112600BF3146AE2000F07BFD0121A7
:101F5000AF2000F067FD054620202C4604432246B2
:101F60003146AE2000F07AFD3146AE2000F06AFD29
:101F70000121AF2000F056FD0546A542E3D170BD1A
:101F800070B53C25052422460C21AE2000F066FDEC
:101F900022460D21AE2000F061FD22460E21AE202A
:101FA00000F05CFD22461021AE2000F057FD70BD10
:101FB00070B50A2600BF3146AE2000F043FD012176
:101FC000AF2000F02FFD054603202C460443224697
:101FD0003146AE2000F042FD3146AE2000F032FD29
:101FE0000121AF2000F01EFD0546A542E3D170BDE2
:101FF00070B5092600BF3146AE2000F023FD012157
:10200000AF2000F00FFD054603202C460443224676
:102010003146AE2000F022FD3146AE2000F012FD28
:102020000121AF2000F0FEFC0546A542E3D170BDC2
:1020300070B5092600BF3146AE2000F003FD012136
:10204000AF2000F0EFFC054640202C46044322461A
:102050003146AE2000F002FD3146AE2000F0F2FC29
:102060000121AF2000F0DEFC0546002DE3D170BD5C
:1020700070B50A2600BF3146AE2000F0E3FC012116
:10208000AF2000F0CFFC054604202C460443224636
:102090003146AE2000F0E2FC3146AE2000F0D2FC2A
:1020A0000121AF2000F0BEFC0546A542E3D170BD82
:1020B00010B500F0EBF8AE2000F02EF9062000F08D
:1020C0002BF900F0E3F8AF2000F026F9012000F032
:1020D0001BF8044600F00AF9204610BD10B500F0C8
:1020E000D5F8AE2000F018F9042000F015F900F042
:1020F000CDF8AF2000F010F9012000F005F80446FB
:1021000000F0F4F8204610BD38B5044601205E49C1
:1021100008610020FFF759FE01205B49486100205B
:10212000FFF753FE58490969C9018022114008464A
:102130000099914301430091002053494861FFF702
:1021400044FE0120504948610020FFF73EFE4E4901
:1021500009698901402211400846009991430143D1
:102160000091002048494861FFF72FFE01204649B1
:1021700048610020FFF729FE4349096949012022EF
:1021800011400846009991430143009100203E49C7
:102190004861FFF71AFE01203B4948610020FFF724
:1021A00014FE3949096909011022114008460099B5
:1021B000914301430091002033494861FFF705FE38
:1021C0000120314948610020FFF7FFFD2E490969D0
:1021D000C90008221140084600999143014300912B
:1021E000002029494861FFF7F0FD01202649486198
:1021F0000020FFF7EAFD2449096989000422114003
:102200000846009991430143009100201E4948610E
:10221000FFF7DBFD01201C4948610020FFF7D5FDD9
:102220001949096949000222114008460099914361
:1022300001430091002014494861FFF7C6FD0120C9
:10224000114948610020FFF7C0FD0F490969C8071F
:10225000C00F0099490849000143009100200A4934
:102260004861084604610020FFF7AFFD01200649E0
:1022700048610020FFF7A9FD0020034948610120C3
:1022800008616846007838BD4043005010B502220E
:1022900030211448FFF720FC1248406A30210843DF
:1022A0001049486210480069002803D10E4948616E
:1022B000FFF78BFD01200C4908610020FFF785FD29
:1022C0000120094948610020FFF77FFD00200649F1
:1022D0000861FFF77AFD002003494861FFF775FDAB
:1022E00010BD0000404100504043005010B5002098
:1022F00008490861FFF769FD01200649486100208F
:10230000FFF763FD0120034908610020FFF75DFD31
:1023100010BD00004043005038B5044668460470C4
:1023200000980006C00F4A4908610020FFF74DFDE4
:102330000120474948610020FFF747FD002044493C
:10234000486100984006C00F08610020FFF73DFD7E
:1023500001203F4948610020FFF737FD00203C493C
:10236000486100988006C00F08610020FFF72DFD2E
:102370000120374948610020FFF727FD002034493C
:1023800048610098C006C00F08610020FFF71DFDDE
:1023900001202F4948610020FFF717FD00202C493C
:1023A000486100980007C00F08610020FFF70DFD8D
:1023B0000120274948610020FFF707FD002024493C
:1023C000486100984007C00F08610020FFF7FDFC3E
:1023D00001201F4948610020FFF7F7FC00201C493D
:1023E000486100988007C00F08610020FFF7EDFCEE
:1023F0000120174948610020FFF7E7FC002014493D
:1024000048610098C007C00F08610020FFF7DDFC9D
:1024100001200F4948610020FFF7D7FC00200C493C
:102420004861012008610020FFF7CFFC0120084926
:1024300048610020FFF7C9FC05480069C1B2684641
:1024400001700020024948616846007838BD0000EC
:102450004043005010B50446FFF7A8FB1648FFF7AD
:10246000F7FA002211461448FFF704FB0520000785
:10247000806B772188430521090788630846806BB4
:1024800011210904084305210907886300BF0020C2
:102490000A49086000BF21460948FFF7FBFB0848CE
:1024A000C068012108430649C8600D200121814010
:1024B000044A116000BF10BD113D00A6000100508C
:1024C0000000154000E100E010B57D21C9000C4876
:1024D0000068FDF796FF0446601E0A49884200D94D
:1024E0000CE0601E084948610321081FFFF722FB2A
:1024F0000020054988610720086100BF10BD000069
:102500000C000020FFFFFF0000E000E010B50446D3
:1025100000200B49C86388630A4884600A20FFF7DB
:102520004CFC012006494039C8630A20FFF745FCEE
:10253000002003494039C8636420FFF73EFC10BD0A
:1025400080420050C040005010B51F480068012173
:10255000890708431C4908601B4840300068052172
:10256000090708431849403108601748803000685F
:10257000164908431449803108600846C068FF21A5
:102580000902084310498031C86000201049C8631F
:1025900088630F494039C8630E48FFF70EFC3820A6
:1025A000FFF7B4FF0C20FFF7B1FF0620FFF7AEFFE7
:1025B0008020FFF7ABFF08A1002000F017F806A16C
:1025C000402000F013F810BD404000505555000069
:1025D0008042005020A10700202020202020202021
:1025E00020202020202020200000000070B505467B
:1025F0000C46802129430846FFF788FF03E0207836
:10260000641C00F005F820780028F8D170BD0000A7
:1026100010B5044601200C49C863002088630B48AC
:1026200084600A20FFF7C9FB012007494039C863CD
:102630000A20FFF7C2FB002003494039C863642029
:10264000FFF7BBFB10BD000080420050C0400050AF
:10265000F8B0DB481690FFF777FFFFF735FFE12072
:102660004002FFF7F7FEFFF722FC00BF00BF00208B
:102670007390729000BF00BF6D906C900026D14F98
:102680006B906A906990689067906690659064908E
:10269000639062906190609000241D9000251C90D2
:1026A0001B901A9019901F90189032201E90C6A16E
:1026B0000020FFF79BFF012203210903C748FFF712
:1026C0000BFA0020C6490863486378E1FFF7F0FC85
:1026D0007590FFF703FD749075997498401A739084
:1026E0007398002802DA739820307390739800284A
:1026F000EBDDFFF7CBFDAE20FFF70EFE0720FFF767
:102700000BFEFFF7C3FDAF20FFF706FE0020FFF72B
:10271000FBFC000471900020FFF7F6FC01027198A9
:10272000081871900020FFF7EFFC71994018719024
:102730000020FFF7E9FC0104081A70900020FFF761
:10274000E3FC01027098081870900120FFF7DCFC90
:10275000709940187090FFF7C9FD7299890040AADE
:10276000719850507299890020AA709850507298B0
:10277000401C729000206F906E90769010E07698DA
:10278000800040A909586F9808186F9076988000CB
:1027900020A909586E9808186E907698401C76907B
:1027A00076980428EBDB6F98C117890F09188910F8
:1027B0006D916E98C117890F091889106C917298E4
:1027C000032801DD002072906D1C6D9C6C981D909B
:1027D0006D9C1698844205DA16996C98884201DA45
:1027E00000201F901F980300FFF7BCFA0705192F60
:1027F000455B667CE80000257AA10020FFF7F6FE25
:102800007DA14020FFF7F2FE16996D98884205DD04
:1028100016996C98884201DD01201F90CEE0B442E9
:1028200006DD6A946B951D986490659526460BE0CD
:10283000301B10AA3821515E884205DD3746022040
:102840001F90012066490863B8E0BC4206DA66942E
:1028500067951D986090619527460BE0E01B10AAD4
:102860003821515E884205DD3E4603201F9000203E
:102870005B490863A2E0B44206DD6A946B951D983B
:102880006490659526460BE0311B10AA3820105E37
:10289000814205DD374604201F900120504908631E
:1028A0008CE06798699066986890619863906098EA
:1028B000629005201F9000BFBC4206DA66946795BF
:1028C0001D986090619527460BE0E01B10AA382107
:1028D000515E884205DD3E4606201F90002040499B
:1028E00008636BE0699B679AD11A689B669AD01A55
:1028F000FDF791FD699A6B99891A484368994018C8
:102900000590FEF73BFA1B906A98FEF737FA0590A0
:102910001B9900F063F91C90639B619AD11A629B2A
:10292000609AD01AFDF777FD639A6599891A484332
:10293000629940180590FEF721FA19906498FEF705
:102940001DFA0590199900F049F91A9019991A98E9
:10295000FEF740F905901B991C98FEF73BF904908F
:102960000599FEF737F918901898FEF709F9254AE6
:10297000254B01910090FDF7DFFF0022234B0391CF
:102980000290FDF7C1FF05910490FDF7EBFD179054
:1029900003201F900CA10020FFF728FE1798FEF7D8
:1029A000EFF802460B460591049019A106A8FDF721
:1029B00039FC06A94020FFF719FE00BF00BF85E6DD
:1029C00010270000C0FB390044656D6F20203230B5
:1029D00032302F30392F32380000000000400050D4
:1029E00000420050576865726520697320796F75E1
:1029F000722020200000000066696E676572203F2B
:102A000000000000E17A14AE47E1044000005A40A3
:102A100053704F323A2025332E3266252520202050
:102A20002020200070B506460C46FFF72FFC3046EC
:102A3000FFF772FC2046FFF767FB0546FFF756FCE1
:102A4000284670BD70B505460C46FFF71FFC2846AA
:102A5000FFF762FC2046FFF75FFC70BD70B50646CD
:102A60000C461546FFF712FC3046FFF755FC204692
:102A7000FFF752FC2846FFF74FFC70BD10B5044627
:102A800010A02168FDF7C0FB11A06168FDF7BCFB39
:102A900012A0A168FDF7B8FB13A0E168FDF7B4FB35
:102AA00014A02169FDF7B0FB15A06169FDF7ACFB2F
:102AB00016A0A169FDF7A8FB17A0E169FDF7A4FB2B
:102AC00010BD0000723020203D20307825780A00AB
:102AD000723120203D20307825780A007232202083
:102AE0003D20307825780A00723320203D20307850
:102AF00025780A00723132203D20307825780A008E
:102B00006C7220203D20307825780A0070632020E8
:102B10003D20307825780A00707372203D2030788F
:102B200025780A0010B500290AD00878002807D0B7
:102B300005487844FEF740FF002801D0002010BD72
:102B40000248784410BD0000D6020000CE0200000A
:102B500070B501250400ED074C4020D4441A01D281
:102B6000001B0919C60D4B00F2B2FF2A29D01B0E1B
:102B70002CD000020C02D31A2C43DC402843051948
:102B800010D2280A02D3401C6D0611D0761EF6051D
:102B90008019FF2A00DA70BDC00DC00570BD694004
:102BA00000F022F801200543C541521C761CE8E7DD
:102BB00064089C40C90161408900E7D10124A04319
:102BC000E4E71B0E440200D0034870BD002AFCD18C
:102BD000C00FC00770BD00BF0000C07F70B50125E9
:102BE0000400ED074C4022D4441A02D26C40001B72
:102BF0000919C60D4B00F2B2FF2A4BD01B0E50D064
:102C000000020C02D31A2C43DC40A843051B05D557
:102C1000AD0019D36D08761E521E37D0F605280A6E
:102C200001D2801970BD70416D0603D070BD69403E
:102C3000FFF794FF9C4009026140490001D0401E0B
:102C400070BD0124A04370BD6D081DD001202B0C68
:102C500001D12D0410302B0E01D12D0208302B0F85
:102C600001D12D01001DAB0F01D1AD00801CEB0F78
:102C700001D16D00401C6D00361A121A680AF50564
:102C80004019012A02DB70BD002070BDC036300A39
:102C9000C00770BD1B0E440201D1FF2B00D10248BA
:102CA00070BD002AF0D070BD0000C07F03B40248A0
:102CB0007844844603BC60472BE3FFFF001BB7004A
:102CC0000080000000000000001BB700001BB700E0
:102CD0000080000000000000001BB700001BB700D0
:102CE0000080000000000000001BB70030313233CC
:102CF0003435363738394142434445464030580030
:102D00003031323334353637383961626364656661
:102D1000403078008182838485868788898B8C8D7A
:102D20008E8F919293959697999A9C9D9FA0A2A31E
:102D3000A5A7A8AAACAEB0B2B3B5B7B9BCBEC0C265
:102D4000C5C7C9CCCED1D4D7D9DCDFE2E6E9ECF0F7
:102D5000F3F7FAFE02400000000000A000000000AF
:102D600005400000000000C8000000000C4000000A
:102D70000000409C00000000194000000020BCBE84
:102D80000000000034400000BFC91B8E000000049A
:102D9000B5400000504BCFD06607E2CF01000000E5
:102DA0006C4100003E8251AADFEEA7340100000012
:102DB000D9420000DCB5A0E23A301F97FFFFFFFFC9
:102DC000B4450000FD25A0C8E9A3C14FFFFFFFFFE8
:102DD000FF3F00000000008000000000FF3F0000F7
:102DE0000000008000000000242E000000000020F1
:102DF0001400000004010000382E00001400002020
:102E0000640A0000200100001C00000043000000D4
:102E1000F8FFFFFF0C0000000E0000000F00000094
:102E20002E00000000000000000000000000000074
:082E3000001BB7000C000000BC
:04000005000001A94D
:00000001FF
